{
  "contractName": "DeFi",
  "abi": [
    {
      "anonymous": false,
      "inputs": [
        {
          "indexed": true,
          "internalType": "string",
          "name": "vendor",
          "type": "string"
        },
        {
          "indexed": false,
          "internalType": "uint256",
          "name": "amount",
          "type": "uint256"
        }
      ],
      "name": "DaiAdded",
      "type": "event"
    },
    {
      "anonymous": false,
      "inputs": [
        {
          "indexed": true,
          "internalType": "address",
          "name": "vendor",
          "type": "address"
        },
        {
          "indexed": false,
          "internalType": "uint256",
          "name": "amount",
          "type": "uint256"
        }
      ],
      "name": "LiquidityAdded",
      "type": "event"
    },
    {
      "anonymous": false,
      "inputs": [
        {
          "indexed": true,
          "internalType": "address",
          "name": "vendor",
          "type": "address"
        },
        {
          "indexed": true,
          "internalType": "string",
          "name": "currency",
          "type": "string"
        },
        {
          "indexed": true,
          "internalType": "string",
          "name": "order",
          "type": "string"
        },
        {
          "indexed": false,
          "internalType": "uint256",
          "name": "_amount",
          "type": "uint256"
        }
      ],
      "name": "NewDaiListing",
      "type": "event"
    },
    {
      "anonymous": false,
      "inputs": [
        {
          "indexed": true,
          "internalType": "string",
          "name": "username",
          "type": "string"
        },
        {
          "indexed": true,
          "internalType": "uint256",
          "name": "registered",
          "type": "uint256"
        }
      ],
      "name": "NewRegistration",
      "type": "event"
    },
    {
      "anonymous": false,
      "inputs": [
        {
          "indexed": true,
          "internalType": "string",
          "name": "vendor",
          "type": "string"
        },
        {
          "indexed": true,
          "internalType": "string",
          "name": "username",
          "type": "string"
        },
        {
          "indexed": false,
          "internalType": "uint256",
          "name": "amount",
          "type": "uint256"
        }
      ],
      "name": "OrderApproved",
      "type": "event"
    },
    {
      "anonymous": false,
      "inputs": [
        {
          "indexed": true,
          "internalType": "address",
          "name": "vendor",
          "type": "address"
        },
        {
          "indexed": true,
          "internalType": "string",
          "name": "username",
          "type": "string"
        },
        {
          "indexed": false,
          "internalType": "uint256",
          "name": "amount",
          "type": "uint256"
        }
      ],
      "name": "ReserveBuy",
      "type": "event"
    },
    {
      "inputs": [],
      "name": "cTokenAddress",
      "outputs": [
        {
          "internalType": "address",
          "name": "",
          "type": "address"
        }
      ],
      "stateMutability": "view",
      "type": "function"
    },
    {
      "inputs": [
        {
          "internalType": "string",
          "name": "",
          "type": "string"
        }
      ],
      "name": "diaBalances",
      "outputs": [
        {
          "internalType": "uint256",
          "name": "",
          "type": "uint256"
        }
      ],
      "stateMutability": "view",
      "type": "function"
    },
    {
      "inputs": [],
      "name": "exRateMantissa",
      "outputs": [
        {
          "internalType": "uint256",
          "name": "",
          "type": "uint256"
        }
      ],
      "stateMutability": "view",
      "type": "function"
    },
    {
      "inputs": [],
      "name": "minimumDaiDeposit",
      "outputs": [
        {
          "internalType": "uint256",
          "name": "",
          "type": "uint256"
        }
      ],
      "stateMutability": "view",
      "type": "function"
    },
    {
      "inputs": [
        {
          "internalType": "uint256",
          "name": "",
          "type": "uint256"
        }
      ],
      "name": "orders",
      "outputs": [
        {
          "internalType": "string",
          "name": "username",
          "type": "string"
        },
        {
          "internalType": "uint256",
          "name": "value",
          "type": "uint256"
        },
        {
          "internalType": "uint256",
          "name": "opened",
          "type": "uint256"
        }
      ],
      "stateMutability": "view",
      "type": "function"
    },
    {
      "inputs": [
        {
          "internalType": "uint256",
          "name": "",
          "type": "uint256"
        }
      ],
      "name": "sellDaiListings",
      "outputs": [
        {
          "internalType": "string",
          "name": "username",
          "type": "string"
        },
        {
          "internalType": "uint256",
          "name": "value",
          "type": "uint256"
        },
        {
          "internalType": "uint256",
          "name": "buyRateMantissa",
          "type": "uint256"
        },
        {
          "internalType": "uint256",
          "name": "sellRateMantissa",
          "type": "uint256"
        },
        {
          "internalType": "uint256",
          "name": "minimumLimitMantissa",
          "type": "uint256"
        },
        {
          "internalType": "uint256",
          "name": "maximumLimitMantissa",
          "type": "uint256"
        }
      ],
      "stateMutability": "view",
      "type": "function"
    },
    {
      "inputs": [
        {
          "internalType": "address",
          "name": "",
          "type": "address"
        }
      ],
      "name": "sellDaiVendors",
      "outputs": [
        {
          "internalType": "uint256",
          "name": "",
          "type": "uint256"
        }
      ],
      "stateMutability": "view",
      "type": "function"
    },
    {
      "inputs": [],
      "name": "totalDaiSupplied",
      "outputs": [
        {
          "internalType": "uint256",
          "name": "",
          "type": "uint256"
        }
      ],
      "stateMutability": "view",
      "type": "function"
    },
    {
      "inputs": [],
      "name": "totalDiaLiquidity",
      "outputs": [
        {
          "internalType": "uint256",
          "name": "",
          "type": "uint256"
        }
      ],
      "stateMutability": "view",
      "type": "function"
    },
    {
      "inputs": [],
      "name": "underlyingAddress",
      "outputs": [
        {
          "internalType": "address",
          "name": "",
          "type": "address"
        }
      ],
      "stateMutability": "view",
      "type": "function"
    },
    {
      "inputs": [
        {
          "internalType": "string",
          "name": "",
          "type": "string"
        }
      ],
      "name": "users",
      "outputs": [
        {
          "internalType": "string",
          "name": "username",
          "type": "string"
        },
        {
          "internalType": "uint256",
          "name": "underlyingBal",
          "type": "uint256"
        },
        {
          "internalType": "uint256",
          "name": "cTokenBal",
          "type": "uint256"
        },
        {
          "internalType": "uint256",
          "name": "registered",
          "type": "uint256"
        },
        {
          "internalType": "bool",
          "name": "isUser",
          "type": "bool"
        }
      ],
      "stateMutability": "view",
      "type": "function"
    },
    {
      "inputs": [
        {
          "components": [
            {
              "internalType": "string",
              "name": "username",
              "type": "string"
            },
            {
              "internalType": "uint256",
              "name": "underlyingBal",
              "type": "uint256"
            },
            {
              "internalType": "uint256",
              "name": "cTokenBal",
              "type": "uint256"
            },
            {
              "internalType": "uint256",
              "name": "registered",
              "type": "uint256"
            },
            {
              "internalType": "bool",
              "name": "isUser",
              "type": "bool"
            }
          ],
          "internalType": "struct DeFi.user",
          "name": "_user",
          "type": "tuple"
        }
      ],
      "name": "newUser",
      "outputs": [
        {
          "components": [
            {
              "internalType": "string",
              "name": "username",
              "type": "string"
            },
            {
              "internalType": "uint256",
              "name": "underlyingBal",
              "type": "uint256"
            },
            {
              "internalType": "uint256",
              "name": "cTokenBal",
              "type": "uint256"
            },
            {
              "internalType": "uint256",
              "name": "registered",
              "type": "uint256"
            },
            {
              "internalType": "bool",
              "name": "isUser",
              "type": "bool"
            }
          ],
          "internalType": "struct DeFi.user",
          "name": "_account",
          "type": "tuple"
        }
      ],
      "stateMutability": "nonpayable",
      "type": "function"
    },
    {
      "inputs": [
        {
          "components": [
            {
              "internalType": "string",
              "name": "username",
              "type": "string"
            },
            {
              "internalType": "uint256",
              "name": "value",
              "type": "uint256"
            },
            {
              "internalType": "uint256",
              "name": "buyRateMantissa",
              "type": "uint256"
            },
            {
              "internalType": "uint256",
              "name": "sellRateMantissa",
              "type": "uint256"
            },
            {
              "internalType": "uint256",
              "name": "minimumLimitMantissa",
              "type": "uint256"
            },
            {
              "internalType": "uint256",
              "name": "maximumLimitMantissa",
              "type": "uint256"
            },
            {
              "internalType": "uint256[]",
              "name": "openOrders",
              "type": "uint256[]"
            }
          ],
          "internalType": "struct DeFi.listing",
          "name": "_listing",
          "type": "tuple"
        },
        {
          "internalType": "string",
          "name": "_username",
          "type": "string"
        }
      ],
      "name": "sellDiaAds",
      "outputs": [],
      "stateMutability": "nonpayable",
      "type": "function"
    },
    {
      "inputs": [
        {
          "internalType": "string",
          "name": "_username",
          "type": "string"
        },
        {
          "internalType": "uint256",
          "name": "_amount",
          "type": "uint256"
        }
      ],
      "name": "addDiaLiquidity",
      "outputs": [
        {
          "internalType": "bool",
          "name": "",
          "type": "bool"
        }
      ],
      "stateMutability": "nonpayable",
      "type": "function"
    },
    {
      "inputs": [
        {
          "internalType": "address",
          "name": "_adOwner",
          "type": "address"
        },
        {
          "internalType": "string",
          "name": "_username",
          "type": "string"
        },
        {
          "internalType": "uint256",
          "name": "_amount",
          "type": "uint256"
        }
      ],
      "name": "reserveBuy",
      "outputs": [
        {
          "internalType": "bool",
          "name": "_status",
          "type": "bool"
        }
      ],
      "stateMutability": "nonpayable",
      "type": "function"
    },
    {
      "inputs": [
        {
          "internalType": "uint256",
          "name": "_orderIndex",
          "type": "uint256"
        },
        {
          "internalType": "uint256",
          "name": "_amount",
          "type": "uint256"
        }
      ],
      "name": "approveBuy",
      "outputs": [],
      "stateMutability": "nonpayable",
      "type": "function"
    },
    {
      "inputs": [
        {
          "internalType": "uint256",
          "name": "_amount",
          "type": "uint256"
        },
        {
          "internalType": "string",
          "name": "_username",
          "type": "string"
        }
      ],
      "name": "save",
      "outputs": [
        {
          "internalType": "uint256",
          "name": "_exRate",
          "type": "uint256"
        }
      ],
      "stateMutability": "nonpayable",
      "type": "function"
    },
    {
      "inputs": [
        {
          "internalType": "string",
          "name": "_username",
          "type": "string"
        }
      ],
      "name": "unsave",
      "outputs": [
        {
          "internalType": "uint256",
          "name": "_exRate",
          "type": "uint256"
        }
      ],
      "stateMutability": "nonpayable",
      "type": "function"
    },
    {
      "inputs": [],
      "name": "lookUpExRate",
      "outputs": [
        {
          "internalType": "uint256",
          "name": "rate",
          "type": "uint256"
        }
      ],
      "stateMutability": "nonpayable",
      "type": "function"
    },
    {
      "inputs": [
        {
          "internalType": "string",
          "name": "_username",
          "type": "string"
        }
      ],
      "name": "savingsInfo",
      "outputs": [
        {
          "internalType": "uint256",
          "name": "_redeemableBal",
          "type": "uint256"
        },
        {
          "internalType": "uint256",
          "name": "_rate",
          "type": "uint256"
        },
        {
          "internalType": "uint256",
          "name": "_ctokenBal",
          "type": "uint256"
        }
      ],
      "stateMutability": "view",
      "type": "function"
    }
  ],
  "bytecode": "0x6080604052736b175474e89094c44da98b954eedeac495271d0f6000806101000a81548173ffffffffffffffffffffffffffffffffffffffff021916908373ffffffffffffffffffffffffffffffffffffffff160217905550735d3a536e4d6dbd6114cc1ead35777bab948e3643600160006101000a81548173ffffffffffffffffffffffffffffffffffffffff021916908373ffffffffffffffffffffffffffffffffffffffff160217905550670de0b6b3a76400006002553480156100c557600080fd5b50613035806100d56000396000f3fe608060405234801561001057600080fd5b506004361061012b5760003560e01c8063a351aa54116100ad578063cbf7446b11610071578063cbf7446b1461038b578063cd866d37146103bb578063de9dc5ce146103eb578063e00b69db14610409578063e3e2a3e7146104395761012b565b8063a351aa54146102c1578063a4218659146102dd578063a85c38ef146102f9578063ab2235bf1461032b578063c6ba0c261461035b5761012b565b806341a21c48116100f457806341a21c4814610215578063689e1c03146102335780636ddd77551461026757806372b68fcb14610285578063833e231e146102a35761012b565b806245b2231461013057806302721c62146101605780630344c427146101905780631db94e4d146101c25780632140ea67146101f7575b600080fd5b61014a600480360381019061014591906122aa565b610457565b60405161015791906129c8565b60405180910390f35b61017a60048036038101906101759190612269565b610796565b6040516101879190612c05565b60405180910390f35b6101aa60048036038101906101a59190612269565b6107c4565b6040516101b993929190612c20565b60405180910390f35b6101dc60048036038101906101d791906123ab565b6108e8565b6040516101ee96959493929190612a7b565b60405180910390f35b6101ff6109bc565b60405161020c9190612924565b60405180910390f35b61021d6109e0565b60405161022a9190612c05565b60405180910390f35b61024d60048036038101906102489190612269565b6109e6565b60405161025e959493929190612a21565b60405180910390f35b61026f610ac7565b60405161027c9190612c05565b60405180910390f35b61028d610b70565b60405161029a9190612c05565b60405180910390f35b6102ab610b76565b6040516102b89190612924565b60405180910390f35b6102db60048036038101906102d69190612451565b610b9c565b005b6102f760048036038101906102f291906122fe565b610ff0565b005b610313600480360381019061030e91906123ab565b611244565b604051610322939291906129e3565b60405180910390f35b61034560048036038101906103409190612269565b611306565b6040516103529190612c05565b60405180910390f35b6103756004803603810190610370919061236a565b61156f565b6040516103829190612be3565b60405180910390f35b6103a560048036038101906103a091906123fd565b6117c2565b6040516103b29190612c05565b60405180910390f35b6103d560048036038101906103d091906121d9565b611b31565b6040516103e291906129c8565b60405180910390f35b6103f3611d44565b6040516104009190612c05565b60405180910390f35b610423600480360381019061041e91906121b0565b611d4a565b6040516104309190612c05565b60405180910390f35b610441611d62565b60405161044e9190612c05565b60405180910390f35b60008073ffffffffffffffffffffffffffffffffffffffff163373ffffffffffffffffffffffffffffffffffffffff1614156104c8576040517f08c379a00000000000000000000000000000000000000000000000000000000081526004016104bf90612ae3565b60405180910390fd5b8160008054906101000a900473ffffffffffffffffffffffffffffffffffffffff1673ffffffffffffffffffffffffffffffffffffffff1663dd62ed3e33306040518363ffffffff1660e01b815260040161052492919061293f565b602060405180830381600087803b15801561053e57600080fd5b505af1158015610552573d6000803e3d6000fd5b505050506040513d601f19601f8201168201806040525081019061057691906123d4565b10156105b7576040517f08c379a00000000000000000000000000000000000000000000000000000000081526004016105ae90612bc3565b60405180910390fd5b6002548210156105fc576040517f08c379a00000000000000000000000000000000000000000000000000000000081526004016105f390612b23565b60405180910390fd5b60008060009054906101000a900473ffffffffffffffffffffffffffffffffffffffff1673ffffffffffffffffffffffffffffffffffffffff166323b872dd3330866040518463ffffffff1660e01b815260040161065c93929190612968565b602060405180830381600087803b15801561067657600080fd5b505af115801561068a573d6000803e3d6000fd5b505050506040513d601f19601f820116820180604052508101906106ae9190612240565b9050806106f0576040517f08c379a00000000000000000000000000000000000000000000000000000000081526004016106e790612b03565b60405180910390fd5b8260038560405161070191906128e3565b9081526020016040518091039020600082825461071e9190612d1c565b9250508190555082600860008282546107379190612d1c565b925050819055503373ffffffffffffffffffffffffffffffffffffffff167fc17cea59c2955cb181b03393209566960365771dbba9dc3d510180e7cb312088846040516107849190612c05565b60405180910390a28091505092915050565b6003818051602081018201805184825260208301602085012081835280955050505050506000915090505481565b6000806000806004856040516107da91906128e3565b90815260200160405180910390206040518060a001604052908160008201805461080390612ebb565b80601f016020809104026020016040519081016040528092919081815260200182805461082f90612ebb565b801561087c5780601f106108515761010080835404028352916020019161087c565b820191906000526020600020905b81548152906001019060200180831161085f57829003601f168201915b505050505081526020016001820154815260200160028201548152602001600382015481526020016004820160009054906101000a900460ff16151515158152505090508060200151600a546108d29190612da3565b600a548260400151935093509350509193909250565b600681815481106108f857600080fd5b906000526020600020906007020160009150905080600001805461091b90612ebb565b80601f016020809104026020016040519081016040528092919081815260200182805461094790612ebb565b80156109945780601f1061096957610100808354040283529160200191610994565b820191906000526020600020905b81548152906001019060200180831161097757829003601f168201915b5050505050908060010154908060020154908060030154908060040154908060050154905086565b60008054906101000a900473ffffffffffffffffffffffffffffffffffffffff1681565b60095481565b600481805160208101820180518482526020830160208501208183528095505050505050600091509050806000018054610a1f90612ebb565b80601f0160208091040260200160405190810160405280929190818152602001828054610a4b90612ebb565b8015610a985780601f10610a6d57610100808354040283529160200191610a98565b820191906000526020600020905b815481529060010190602001808311610a7b57829003601f168201915b5050505050908060010154908060020154908060030154908060040160009054906101000a900460ff16905085565b6000600160009054906101000a900473ffffffffffffffffffffffffffffffffffffffff1673ffffffffffffffffffffffffffffffffffffffff1663bd6d894d6040518163ffffffff1660e01b8152600401602060405180830381600087803b158015610b3357600080fd5b505af1158015610b47573d6000803e3d6000fd5b505050506040513d601f19601f82011682018060405250810190610b6b91906123d4565b905090565b600a5481565b600160009054906101000a900473ffffffffffffffffffffffffffffffffffffffff1681565b6000600560003373ffffffffffffffffffffffffffffffffffffffff1673ffffffffffffffffffffffffffffffffffffffff168152602001908152602001600020549050600060068281548110610c1c577f4e487b7100000000000000000000000000000000000000000000000000000000600052603260045260246000fd5b90600052602060002090600702016040518060e0016040529081600082018054610c4590612ebb565b80601f0160208091040260200160405190810160405280929190818152602001828054610c7190612ebb565b8015610cbe5780601f10610c9357610100808354040283529160200191610cbe565b820191906000526020600020905b815481529060010190602001808311610ca157829003601f168201915b50505050508152602001600182015481526020016002820154815260200160038201548152602001600482015481526020016005820154815260200160068201805480602002602001604051908101604052809291908181526020018280548015610d4857602002820191906000526020600020905b815481526020019060010190808311610d34575b50505050508152505090508260038260000151604051610d6891906128e3565b9081526020016040518091039020541015610db8576040517f08c379a0000000000000000000000000000000000000000000000000000000008152600401610daf90612ba3565b60405180910390fd5b600060078581548110610df4577f4e487b7100000000000000000000000000000000000000000000000000000000600052603260045260246000fd5b90600052602060002090600302016000018054610e1090612ebb565b80601f0160208091040260200160405190810160405280929190818152602001828054610e3c90612ebb565b8015610e895780601f10610e5e57610100808354040283529160200191610e89565b820191906000526020600020905b815481529060010190602001808311610e6c57829003601f168201915b505050505090508360038360000151604051610ea591906128e3565b90815260200160405180910390206000828254610ec29190612dfd565b9250508190555083600382604051610eda91906128e3565b90815260200160405180910390206000828254610ef79190612d1c565b925050819055508360086000828254610f109190612dfd565b9250508190555060078581548110610f51577f4e487b7100000000000000000000000000000000000000000000000000000000600052603260045260246000fd5b906000526020600020906003020160008082016000610f709190611d68565b60018201600090556002820160009055505080604051610f9091906128e3565b60405180910390208260000151604051610faa91906128e3565b60405180910390207fe183240536ad93c2e85f046095b2def7fdcdb7b2694795f723db57349abbe52086604051610fe19190612c05565b60405180910390a35050505050565b6000600560003373ffffffffffffffffffffffffffffffffffffffff1673ffffffffffffffffffffffffffffffffffffffff168152602001908152602001600020541015611073576040517f08c379a000000000000000000000000000000000000000000000000000000000815260040161106a90612b63565b60405180910390fd5b816020015160038260405161108891906128e3565b908152602001604051809103902054116110d7576040517f08c379a00000000000000000000000000000000000000000000000000000000081526004016110ce90612b83565b60405180910390fd5b6006829080600181540180825580915050600190039060005260206000209060070201600090919091909150600082015181600001908051906020019061111f929190611da8565b506020820151816001015560408201518160020155606082015181600301556080820151816004015560a0820151816005015560c082015181600601908051906020019061116e929190611e2e565b50505060016006805490506111839190612dfd565b600560003373ffffffffffffffffffffffffffffffffffffffff1673ffffffffffffffffffffffffffffffffffffffff168152602001908152602001600020819055506040516111d29061290f565b60405180910390206040516111e6906128fa565b60405180910390203373ffffffffffffffffffffffffffffffffffffffff167f0f780a1f13b83abc328159f8ed64d84226cd43946ec0cf438da7c8e54cf64e6785602001516040516112389190612c05565b60405180910390a45050565b6007818154811061125457600080fd5b906000526020600020906003020160009150905080600001805461127790612ebb565b80601f01602080910402602001604051908101604052809291908181526020018280546112a390612ebb565b80156112f05780601f106112c5576101008083540402835291602001916112f0565b820191906000526020600020905b8154815290600101906020018083116112d357829003601f168201915b5050505050908060010154908060020154905083565b60008060048360405161131991906128e3565b908152602001604051809103902090506000816001015411611370576040517f08c379a000000000000000000000000000000000000000000000000000000000815260040161136790612ba3565b60405180910390fd5b60006402540be400600160009054906101000a900473ffffffffffffffffffffffffffffffffffffffff1673ffffffffffffffffffffffffffffffffffffffff1663bd6d894d6040518163ffffffff1660e01b8152600401602060405180830381600087803b1580156113e257600080fd5b505af11580156113f6573d6000803e3d6000fd5b505050506040513d601f19601f8201168201806040525081019061141a91906123d4565b6114249190612da3565b90506000600160009054906101000a900473ffffffffffffffffffffffffffffffffffffffff1673ffffffffffffffffffffffffffffffffffffffff1663852a12e384600101546040518263ffffffff1660e01b81526004016114879190612c05565b602060405180830381600087803b1580156114a157600080fd5b505af11580156114b5573d6000803e3d6000fd5b505050506040513d601f19601f820116820180604052508101906114d991906123d4565b1461150d577f4e487b7100000000000000000000000000000000000000000000000000000000600052600160045260246000fd5b81600101548161151d9190612da3565b60038560405161152d91906128e3565b9081526020016040518091039020600082825461154a9190612d1c565b9250508190555060008260010181905550600082600201819055508092505050919050565b611577611e7b565b600115156004836000015160405161158f91906128e3565b908152602001604051809103902060040160009054906101000a900460ff16151514156115f1576040517f08c379a00000000000000000000000000000000000000000000000000000000081526004016115e890612b43565b60405180910390fd5b42826060018181525050816004836000015160405161161091906128e3565b9081526020016040518091039020600082015181600001908051906020019061163a929190611da8565b5060208201518160010155604082015181600201556060820151816003015560808201518160040160006101000a81548160ff02191690831515021790555090505042826000015160405161168f91906128e3565b60405180910390207f3a0aa7b4c2d9f56b3c48a9c4e0cf3134596031ed61416a702e89865c243b4fbe60405160405180910390a3600482600001516040516116d791906128e3565b90815260200160405180910390206040518060a001604052908160008201805461170090612ebb565b80601f016020809104026020016040519081016040528092919081815260200182805461172c90612ebb565b80156117795780601f1061174e57610100808354040283529160200191611779565b820191906000526020600020905b81548152906001019060200180831161175c57829003601f168201915b505050505081526020016001820154815260200160028201548152602001600382015481526020016004820160009054906101000a900460ff1615151515815250509050919050565b6000826003836040516117d591906128e3565b9081526020016040518091039020541015611825576040517f08c379a000000000000000000000000000000000000000000000000000000000815260040161181c90612ba3565b60405180910390fd5b60006402540be400600160009054906101000a900473ffffffffffffffffffffffffffffffffffffffff1673ffffffffffffffffffffffffffffffffffffffff1663bd6d894d6040518163ffffffff1660e01b8152600401602060405180830381600087803b15801561189757600080fd5b505af11580156118ab573d6000803e3d6000fd5b505050506040513d601f19601f820116820180604052508101906118cf91906123d4565b6118d99190612da3565b905060008054906101000a900473ffffffffffffffffffffffffffffffffffffffff1673ffffffffffffffffffffffffffffffffffffffff1663095ea7b3600160009054906101000a900473ffffffffffffffffffffffffffffffffffffffff16866040518363ffffffff1660e01b815260040161195892919061299f565b602060405180830381600087803b15801561197257600080fd5b505af1158015611986573d6000803e3d6000fd5b505050506040513d601f19601f820116820180604052508101906119aa9190612240565b506000600160009054906101000a900473ffffffffffffffffffffffffffffffffffffffff1673ffffffffffffffffffffffffffffffffffffffff1663a0712d68866040518263ffffffff1660e01b8152600401611a089190612c05565b602060405180830381600087803b158015611a2257600080fd5b505af1158015611a36573d6000803e3d6000fd5b505050506040513d601f19601f82011682018060405250810190611a5a91906123d4565b14611a8e577f4e487b7100000000000000000000000000000000000000000000000000000000600052600160045260246000fd5b6000600484604051611aa091906128e3565b9081526020016040518091039020905084600385604051611ac191906128e3565b90815260200160405180910390206000828254611ade9190612dfd565b9250508190555084816001016000828254611af99190612d1c565b925050819055508185611b0c9190612d72565b816002016000828254611b1f9190612d1c565b92505081905550819250505092915050565b600080600560008673ffffffffffffffffffffffffffffffffffffffff1673ffffffffffffffffffffffffffffffffffffffff168152602001908152602001600020549050600760405180606001604052808681526020018581526020014281525090806001815401808255809150506001900390600052602060002090600302016000909190919091506000820151816000019080519060200190611bd8929190611da8565b506020820151816001015560408201518160020155505060068181548110611c29577f4e487b7100000000000000000000000000000000000000000000000000000000600052603260045260246000fd5b90600052602060002090600702016006016001600780549050611c4c9190612dfd565b90806001815401808255809150506001900390600052602060002001600090919091909150558260068281548110611cad577f4e487b7100000000000000000000000000000000000000000000000000000000600052603260045260246000fd5b90600052602060002090600702016001016000828254611ccd9190612dfd565b9250508190555083604051611ce291906128e3565b60405180910390208573ffffffffffffffffffffffffffffffffffffffff167ff5c9f9f2ca52fbaeab5542dbda3c71867f503d11618d60771fa3d1ccc01a428285604051611d309190612c05565b60405180910390a360019150509392505050565b60085481565b60056020528060005260406000206000915090505481565b60025481565b508054611d7490612ebb565b6000825580601f10611d865750611da5565b601f016020900490600052602060002090810190611da49190611eac565b5b50565b828054611db490612ebb565b90600052602060002090601f016020900481019282611dd65760008555611e1d565b82601f10611def57805160ff1916838001178555611e1d565b82800160010185558215611e1d579182015b82811115611e1c578251825591602001919060010190611e01565b5b509050611e2a9190611eac565b5090565b828054828255906000526020600020908101928215611e6a579160200282015b82811115611e69578251825591602001919060010190611e4e565b5b509050611e779190611eac565b5090565b6040518060a00160405280606081526020016000815260200160008152602001600081526020016000151581525090565b5b80821115611ec5576000816000905550600101611ead565b5090565b6000611edc611ed784612c88565b612c57565b90508083825260208201905082856020860282011115611efb57600080fd5b60005b85811015611f2b5781611f118882612186565b845260208401935060208301925050600181019050611efe565b5050509392505050565b6000611f48611f4384612cb4565b612c57565b905082815260208101848484011115611f6057600080fd5b611f6b848285612e79565b509392505050565b600081359050611f8281612fba565b92915050565b600082601f830112611f9957600080fd5b8135611fa9848260208601611ec9565b91505092915050565b600081359050611fc181612fd1565b92915050565b600081519050611fd681612fd1565b92915050565b600082601f830112611fed57600080fd5b8135611ffd848260208601611f35565b91505092915050565b600060e0828403121561201857600080fd5b61202260e0612c57565b9050600082013567ffffffffffffffff81111561203e57600080fd5b61204a84828501611fdc565b600083015250602061205e84828501612186565b602083015250604061207284828501612186565b604083015250606061208684828501612186565b606083015250608061209a84828501612186565b60808301525060a06120ae84828501612186565b60a08301525060c082013567ffffffffffffffff8111156120ce57600080fd5b6120da84828501611f88565b60c08301525092915050565b600060a082840312156120f857600080fd5b61210260a0612c57565b9050600082013567ffffffffffffffff81111561211e57600080fd5b61212a84828501611fdc565b600083015250602061213e84828501612186565b602083015250604061215284828501612186565b604083015250606061216684828501612186565b606083015250608061217a84828501611fb2565b60808301525092915050565b60008135905061219581612fe8565b92915050565b6000815190506121aa81612fe8565b92915050565b6000602082840312156121c257600080fd5b60006121d084828501611f73565b91505092915050565b6000806000606084860312156121ee57600080fd5b60006121fc86828701611f73565b935050602084013567ffffffffffffffff81111561221957600080fd5b61222586828701611fdc565b925050604061223686828701612186565b9150509250925092565b60006020828403121561225257600080fd5b600061226084828501611fc7565b91505092915050565b60006020828403121561227b57600080fd5b600082013567ffffffffffffffff81111561229557600080fd5b6122a184828501611fdc565b91505092915050565b600080604083850312156122bd57600080fd5b600083013567ffffffffffffffff8111156122d757600080fd5b6122e385828601611fdc565b92505060206122f485828601612186565b9150509250929050565b6000806040838503121561231157600080fd5b600083013567ffffffffffffffff81111561232b57600080fd5b61233785828601612006565b925050602083013567ffffffffffffffff81111561235457600080fd5b61236085828601611fdc565b9150509250929050565b60006020828403121561237c57600080fd5b600082013567ffffffffffffffff81111561239657600080fd5b6123a2848285016120e6565b91505092915050565b6000602082840312156123bd57600080fd5b60006123cb84828501612186565b91505092915050565b6000602082840312156123e657600080fd5b60006123f48482850161219b565b91505092915050565b6000806040838503121561241057600080fd5b600061241e85828601612186565b925050602083013567ffffffffffffffff81111561243b57600080fd5b61244785828601611fdc565b9150509250929050565b6000806040838503121561246457600080fd5b600061247285828601612186565b925050602061248385828601612186565b9150509250929050565b61249681612e31565b82525050565b6124a581612e43565b82525050565b6124b481612e43565b82525050565b60006124c582612ce4565b6124cf8185612cef565b93506124df818560208601612e88565b6124e881612fa9565b840191505092915050565b60006124fe82612ce4565b6125088185612d00565b9350612518818560208601612e88565b61252181612fa9565b840191505092915050565b600061253782612ce4565b6125418185612d11565b9350612551818560208601612e88565b80840191505092915050565b600061256a600f83612d00565b91507f496e76616c6964206164647265737300000000000000000000000000000000006000830152602082019050919050565b60006125aa601683612d00565b91507f5472616e7366657220756e7375636365737366756c21000000000000000000006000830152602082019050919050565b60006125ea601883612d00565b91507f4d696e696d756d206465706f736974206f6620312044616900000000000000006000830152602082019050919050565b600061262a601783612d00565b91507f557365726e616d6520616c72656164792074616b656e210000000000000000006000830152602082019050919050565b600061266a602183612d00565b91507f596f75206861766520616e206578697374696e672073656c6c206c697374696e60008301527f67000000000000000000000000000000000000000000000000000000000000006020830152604082019050919050565b60006126d0600383612d11565b91507f64616900000000000000000000000000000000000000000000000000000000006000830152600382019050919050565b6000612710602883612d00565b91507f596f7520646f6e7420686176652073756666696369656e742044616920746f2060008301527f6c697374206164730000000000000000000000000000000000000000000000006020830152604082019050919050565b6000612776601483612d00565b91507f496e73756666696369656e742042616c616e63650000000000000000000000006000830152602082019050919050565b60006127b6602d83612d00565b91507f466972737420617070726f7665207468697320636f6e747261637420746f207360008301527f70656e6420796f757220446169000000000000000000000000000000000000006020830152604082019050919050565b600061281c600483612d11565b91507f73656c6c000000000000000000000000000000000000000000000000000000006000830152600482019050919050565b600060a083016000830151848203600086015261286c82826124ba565b915050602083015161288160208601826128c5565b50604083015161289460408601826128c5565b5060608301516128a760608601826128c5565b5060808301516128ba608086018261249c565b508091505092915050565b6128ce81612e6f565b82525050565b6128dd81612e6f565b82525050565b60006128ef828461252c565b915081905092915050565b6000612905826126c3565b9150819050919050565b600061291a8261280f565b9150819050919050565b6000602082019050612939600083018461248d565b92915050565b6000604082019050612954600083018561248d565b612961602083018461248d565b9392505050565b600060608201905061297d600083018661248d565b61298a602083018561248d565b61299760408301846128d4565b949350505050565b60006040820190506129b4600083018561248d565b6129c160208301846128d4565b9392505050565b60006020820190506129dd60008301846124ab565b92915050565b600060608201905081810360008301526129fd81866124f3565b9050612a0c60208301856128d4565b612a1960408301846128d4565b949350505050565b600060a0820190508181036000830152612a3b81886124f3565b9050612a4a60208301876128d4565b612a5760408301866128d4565b612a6460608301856128d4565b612a7160808301846124ab565b9695505050505050565b600060c0820190508181036000830152612a9581896124f3565b9050612aa460208301886128d4565b612ab160408301876128d4565b612abe60608301866128d4565b612acb60808301856128d4565b612ad860a08301846128d4565b979650505050505050565b60006020820190508181036000830152612afc8161255d565b9050919050565b60006020820190508181036000830152612b1c8161259d565b9050919050565b60006020820190508181036000830152612b3c816125dd565b9050919050565b60006020820190508181036000830152612b5c8161261d565b9050919050565b60006020820190508181036000830152612b7c8161265d565b9050919050565b60006020820190508181036000830152612b9c81612703565b9050919050565b60006020820190508181036000830152612bbc81612769565b9050919050565b60006020820190508181036000830152612bdc816127a9565b9050919050565b60006020820190508181036000830152612bfd818461284f565b905092915050565b6000602082019050612c1a60008301846128d4565b92915050565b6000606082019050612c3560008301866128d4565b612c4260208301856128d4565b612c4f60408301846128d4565b949350505050565b6000604051905081810181811067ffffffffffffffff82111715612c7e57612c7d612f7a565b5b8060405250919050565b600067ffffffffffffffff821115612ca357612ca2612f7a565b5b602082029050602081019050919050565b600067ffffffffffffffff821115612ccf57612cce612f7a565b5b601f19601f8301169050602081019050919050565b600081519050919050565b600082825260208201905092915050565b600082825260208201905092915050565b600081905092915050565b6000612d2782612e6f565b9150612d3283612e6f565b9250827fffffffffffffffffffffffffffffffffffffffffffffffffffffffffffffffff03821115612d6757612d66612eed565b5b828201905092915050565b6000612d7d82612e6f565b9150612d8883612e6f565b925082612d9857612d97612f1c565b5b828204905092915050565b6000612dae82612e6f565b9150612db983612e6f565b9250817fffffffffffffffffffffffffffffffffffffffffffffffffffffffffffffffff0483118215151615612df257612df1612eed565b5b828202905092915050565b6000612e0882612e6f565b9150612e1383612e6f565b925082821015612e2657612e25612eed565b5b828203905092915050565b6000612e3c82612e4f565b9050919050565b60008115159050919050565b600073ffffffffffffffffffffffffffffffffffffffff82169050919050565b6000819050919050565b82818337600083830152505050565b60005b83811015612ea6578082015181840152602081019050612e8b565b83811115612eb5576000848401525b50505050565b60006002820490506001821680612ed357607f821691505b60208210811415612ee757612ee6612f4b565b5b50919050565b7f4e487b7100000000000000000000000000000000000000000000000000000000600052601160045260246000fd5b7f4e487b7100000000000000000000000000000000000000000000000000000000600052601260045260246000fd5b7f4e487b7100000000000000000000000000000000000000000000000000000000600052602260045260246000fd5b7f4e487b7100000000000000000000000000000000000000000000000000000000600052604160045260246000fd5b6000601f19601f8301169050919050565b612fc381612e31565b8114612fce57600080fd5b50565b612fda81612e43565b8114612fe557600080fd5b50565b612ff181612e6f565b8114612ffc57600080fd5b5056fea2646970667358221220c9150bc134460097a2d90df1faa00247407cd0c5f94d7073b8ad74eebc7f0b1b64736f6c63430008000033",
  "immutableReferences": {},
  "source": "// SPDX-License-Identifier: MIT\n\npragma solidity ^0.8.0;\n\nimport \"./IERC20.sol\";\nimport \"./ICERC20.sol\";\n\n/// @author [Email](mailto:oluwafemialofe@yahoo.com) [Telegram](t.me/@DreWhyte)\ncontract DeFi{\n\n    /// @dev Dia mainnet contract address\n    address public underlyingAddress = 0x6B175474E89094C44Da98b954EedeAC495271d0F;\n\n    /// @dev cToken (cDai) mainnet contract address\n    address public cTokenAddress = 0x5d3a536E4D6DbD6114cc1Ead35777bAB948E3643;\n\n    /// @dev 1 Dai\n    uint public minimumDaiDeposit = 1 * 10 ** 18;\n\n    /// @dev user Dia balances held in this protocol and not yet staked\n    /// @dev string username BEP20/ERC20 address\n    /// @dev uint user balance\n    mapping (string => uint) public diaBalances;\n\n    /// @param username P2P vendor name (UTF-8 bytes)\n    /// @param balance Current liquidy of vendor\n    /// @param buyRateMantissa vendors rate\n    /// @param openOrders Any value greater than 0 means atleast 1 order is still active for this listing, therefore vendor can't remove ads\n    struct listing {\n      string username;\n      uint value;\n      uint buyRateMantissa;\n      uint sellRateMantissa;\n      uint minimumLimitMantissa;\n      uint maximumLimitMantissa;\n      uint[] openOrders;\n    }\n\n    struct order {\n      string username;\n      uint value;\n      uint opened;\n    }\n\n    /// @param username Unique username (UTF-8 bytes)\n    /// @param underlyingBal Total supplied to lending protocol\n    /// @param substituteBal Total minted compilementary(cToken, vToken) tokens\n    /// @param idleBal Total unused Dia balance, available to user anytime\n    struct user {\n      string username;\n      uint underlyingBal;\n      uint cTokenBal;\n      uint registered;\n      bool isUser;\n    }\n\n    mapping (string => user) public users;\n\n    /// @dev address vendor\n    /// @dev uint index in sellDaiListings\n    mapping (address => uint) public sellDaiVendors;\n\n    listing[] public sellDaiListings;\n\n    order[] public orders;\n\n    /// @dev Total liquidy available to savers\n    uint public totalDiaLiquidity;\n\n    /// @dev Total staked Dai via this contract till date\n    uint public totalDaiSupplied;\n\n    uint public exRateMantissa;\n\n    event NewRegistration(string indexed username, uint indexed registered);\n\n    event NewDaiListing(address indexed vendor, string indexed currency, string indexed order, uint _amount);\n\n    event LiquidityAdded(address indexed vendor, uint amount);\n\n    event DaiAdded(string indexed vendor, uint amount);\n\n    event OrderApproved(string indexed vendor, string indexed username, uint amount);\n\n    event ReserveBuy(address indexed vendor, string indexed username, uint amount);\n\n    /// @dev New user registration\n    /// @param _user struct consisting user registration\n    function newUser(user memory _user) public returns (user memory _account) {\n      require(users[_user.username].isUser != true, \"Username already taken!\");\n\n      _user.registered  = block.timestamp;\n\n      users[_user.username] = _user;\n\n      emit NewRegistration(_user.username, block.timestamp);\n\n      return users[_user.username];\n    }\n\n    /// @dev Called by vendor to add new listing to sell Dai\n    function sellDiaAds(listing memory _listing, string memory _username) public {\n      require(sellDaiVendors[msg.sender] >= 0, \"You have an existing sell listing\");\n      require(diaBalances[_username] > _listing.value, \"You dont have sufficient Dai to list ads\");\n\n      sellDaiListings.push(_listing);\n\n      sellDaiVendors[msg.sender] = sellDaiListings.length - 1;\n\n      emit NewDaiListing(msg.sender, 'dai', 'sell', _listing.value);\n    }\n\n    /// @dev Only call this function if approve token is already called\n    /// @dev add Dai balance for vendor\n    /// @param _amount In wei\n    /// @dev Vendors sneds transactions using non-custodain wallet assigned during registration\n    function addDiaLiquidity(string memory _username, uint _amount) public returns (bool) {\n      require(msg.sender != address(0x0), \"Invalid address\");\n      require(IERC20(underlyingAddress).allowance(msg.sender, address(this)) >= _amount, \"First approve this contract to spend your Dai\");\n      require(_amount >= minimumDaiDeposit, \"Minimum deposit of 1 Dai\");\n\n      bool _successful = IERC20(underlyingAddress).transferFrom(msg.sender, address(this), _amount);\n\n      require(_successful, \"Transfer unsuccessful!\");\n\n      diaBalances[_username] += _amount;\n      totalDiaLiquidity += _amount;\n\n      emit LiquidityAdded(msg.sender, _amount);\n\n      return _successful;\n    }\n\n     /// @dev Lock some Dai on an Ad to be realse on approval or added back on reject\n     /// @dev Function call by user performing P2P to get Dai\n    function reserveBuy(address _adOwner, string memory _username, uint _amount) public returns(bool _status) {\n        uint _index = sellDaiVendors[_adOwner];\n\n        orders.push(order(_username,_amount,block.timestamp));\n\n        sellDaiListings[_index].openOrders.push(orders.length - 1);\n\n        //Reserve Dia for this trade\n        sellDaiListings[_index].value -= _amount;\n\n        emit ReserveBuy(_adOwner, _username, _amount);\n\n        return true;\n    }\n\n    /// @dev Function call by vendor to approve buy.\n    /// @dev Vendors sends transactions using non-custodain wallet assigned during registration\n    function approveBuy(uint _orderIndex, uint _amount) public {\n      uint _index = sellDaiVendors[msg.sender];\n      listing memory _listing = sellDaiListings[_index];\n\n      require(diaBalances[_listing.username] >= _amount, \"Insufficient Balance\");\n\n      string memory _username = orders[_orderIndex].username;\n\n      diaBalances[_listing.username] -= _amount;\n      diaBalances[_username] += _amount;\n\n      totalDiaLiquidity -= _amount;\n\n      delete orders[_orderIndex];\n\n      emit OrderApproved(_listing.username, _username, _amount);\n    }\n\n    function save(uint _amount, string memory _username) public returns(uint _exRate) {\n      require(diaBalances[_username] >= _amount, \"Insufficient Balance\");\n\n      uint _exRateMantissa = ICERC20(cTokenAddress).exchangeRateCurrent() * 1e10;\n\n      // Approve transfer on the Dia contract\n      IERC20(underlyingAddress).approve(cTokenAddress, _amount);\n\n      // Mint cTokens\n      assert(ICERC20(cTokenAddress).mint(_amount) == 0);\n\n      user storage _user = users[_username];\n\n      diaBalances[_username] -= _amount;\n      _user.underlyingBal += _amount;\n      _user.cTokenBal += _amount/_exRateMantissa;\n\n      return _exRateMantissa;\n    }\n\n    function unsave(string memory _username)  public returns(uint _exRate) {\n      user storage _user = users[_username];\n\n      require(_user.underlyingBal > 0, \"Insufficient Balance\");\n\n      uint _exRateMantissa = ICERC20(cTokenAddress).exchangeRateCurrent() * 1e10;\n\n      assert(ICERC20(cTokenAddress).redeemUnderlying(_user.underlyingBal) == 0);\n\n      diaBalances[_username] += _exRateMantissa * _user.underlyingBal;\n      _user.underlyingBal = 0;\n      _user.cTokenBal = 0;\n\n      return _exRateMantissa;\n    }\n\n    function lookUpExRate() public returns (uint256 rate) {\n      return ICERC20(cTokenAddress).exchangeRateCurrent();\n    }\n\n    function savingsInfo(string memory _username) public view returns(uint _redeemableBal, uint _rate, uint _ctokenBal)\n    {\n      user memory _user = users[_username];\n\n      return(exRateMantissa * _user.underlyingBal, exRateMantissa, _user.cTokenBal);\n    }\n}\n",
  "sourcePath": "/Users/oluwafemialofe/Sites/defi/contracts/DeFi.sol",
  "compiler": {
    "name": "solc",
    "version": "0.8.0+commit.c7dfd78e.Emscripten.clang"
  },
  "schemaVersion": "3.4.1",
  "updatedAt": "2021-06-14T15:30:40.231Z",
  "devdoc": {
    "author": "[Email](mailto:oluwafemialofe@yahoo.com) [Telegram](t.me/@DreWhyte)",
    "kind": "dev",
    "methods": {
      "addDiaLiquidity(string,uint256)": {
        "details": "Only call this function if approve token is already calledadd Dai balance for vendorVendors sneds transactions using non-custodain wallet assigned during registration",
        "params": {
          "_amount": "In wei"
        }
      },
      "approveBuy(uint256,uint256)": {
        "details": "Function call by vendor to approve buy.Vendors sends transactions using non-custodain wallet assigned during registration"
      },
      "newUser((string,uint256,uint256,uint256,bool))": {
        "details": "New user registration",
        "params": {
          "_user": "struct consisting user registration"
        }
      },
      "reserveBuy(address,string,uint256)": {
        "details": "Lock some Dai on an Ad to be realse on approval or added back on rejectFunction call by user performing P2P to get Dai"
      },
      "sellDiaAds((string,uint256,uint256,uint256,uint256,uint256,uint256[]),string)": {
        "details": "Called by vendor to add new listing to sell Dai"
      }
    },
    "stateVariables": {
      "cTokenAddress": {
        "details": "cToken (cDai) mainnet contract address"
      },
      "diaBalances": {
        "details": "user Dia balances held in this protocol and not yet stakedstring username BEP20/ERC20 addressuint user balance"
      },
      "minimumDaiDeposit": {
        "details": "1 Dai"
      },
      "sellDaiVendors": {
        "details": "address vendoruint index in sellDaiListings"
      },
      "totalDaiSupplied": {
        "details": "Total staked Dai via this contract till date"
      },
      "totalDiaLiquidity": {
        "details": "Total liquidy available to savers"
      },
      "underlyingAddress": {
        "details": "Dia mainnet contract address"
      }
    },
    "version": 1
  },
  "userdoc": {
    "kind": "user",
    "methods": {},
    "version": 1
  }
}